:020000040000FA
:10000000000000EB240000EB2C008FE2000C90E8D5
:1000100000A08AE000B08BE001704AE20B005AE1D8
:100020000000001A1C0000EB0F00BAE818E04FE2D5
:10003000010013E303F0471013FF2FE1DC01000080
:10004000EC0100000030B0E30040B0E30050B0E34A
:100050000060B0E3102052E27800A128FCFFFF8A84
:10006000822EB0E13000A128003081451EFF2FE133
:1000700001C08FE21CFF2FE11FB5059886460FBC1B
:10008000009C02B07047000001C08FE21CFF2FE10E
:1000900030B47546AE4630BC70470000390000EB06
:1000A0000210A0E1F1FFFFEB1CC09FE50FC08CE048
:1000B00001001CE30DE08F120FE0A0011CFF2FE1F7
:1000C00001C08FE21CFF2FE100F08EF8500000000D
:1000D0007847C04603002DE9EAFFFFEB0300BDE8C7
:1000E000460000EB0C009FE50C109FE504209FE507
:1000F00008309FE51EFF2FE16000004060040040D3
:10010000600000400010A0E36C009FE5080090E54F
:10011000020A80E360209FE5080082E50100C2E159
:10012000080090E5010980E3080082E50100C2E1D2
:10013000180090E50108C0E3180082E50100C2E163
:10014000100090E5010810E30400000A0100C2E17C
:100150000C0090E5020A80E30C0082E5040000EA4E
:1001600014009FE5040090E5020A80E308209FE563
:10017000040082E50000A0E31EFF2FE1008002E002
:1001800070477047704700000E50A0E1180000EB68
:1001900005E0A0E10050B0E10D10A0E10A30A0E1BF
:1001A0000700C0E300D0A0E160D08DE220402DE93F
:1001B000CBFFFFEB2040BDE80060A0E30070A0E3B0
:1001C0000080A0E300B0A0E30710C1E305C0A0E1F8
:1001D000C009ACE8C009ACE8C009ACE8C009ACE8AB
:1001E00001D0A0E11EFF2FE10400C046C046200060
:1001F000FFF76EFF00009FE51EFF2FE100000040AB
:1002000001C08FE21CFF2FE101491820ABDFFEE7A0
:10021000260002001EFF2FE128020000000000401F
:08022000E804000044000000A6
:0400000500000000F7
:00000001FF
