:020000040000FA
:10000000000000EB240000EB2C008FE2000C90E8D5
:1000100000A08AE000B08BE001704AE20B005AE1D8
:100020000000001A1C0000EB0F00BAE818E04FE2D5
:10003000010013E303F0471013FF2FE1D401000088
:10004000E40100000030B0E30040B0E30050B0E352
:100050000060B0E3102052E27800A128FCFFFF8A84
:10006000822EB0E13000A128003081451EFF2FE133
:1000700001C08FE21CFF2FE11FB5059886460FBC1B
:10008000009C02B07047000001C08FE21CFF2FE10E
:1000900030B47546AE4630BC70470000370000EB08
:1000A0000210A0E1F1FFFFEB1CC09FE50FC08CE048
:1000B00001001CE30DE08F120FE0A0011CFF2FE1F7
:1000C00001C08FE21CFF2FE100F08AF868000000F9
:1000D0007847C04603002DE9EAFFFFEB0300BDE8C7
:1000E000440000EB0C009FE50C109FE504209FE509
:1000F00008309FE51EFF2FE16000004060040040D3
:10010000600000400010A0E3000000EA011081E25E
:10011000000051E1FCFFFF3A1EFF2FE14C009FE57C
:10012000080090E5020C80E340109FE5080081E59F
:100130000D0000EA34009FE5040090E5020C80E326
:1001400028109FE5040081E524009FE5ECFFFFEB0C
:1001500018009FE50C0090E5020C80E30C109FE571
:100160000C0081E508009FE5E5FFFFEBF0FFFFEAEB
:10017000008002E0A08601007047704770470000D1
:100180000E50A0E1180000EB05E0A0E10050B0E146
:100190000D10A0E10A30A0E10700C0E300D0A0E10B
:1001A00060D08DE220402DE9CDFFFFEB2040BDE87F
:1001B0000060A0E30070A0E30080A0E300B0A0E333
:1001C0000710C1E305C0A0E1C009ACE8C009ACE874
:1001D000C009ACE8C009ACE801D0A0E11EFF2FE1E6
:1001E0000400C046C0462000FFF772FF00009FE5F4
:1001F0001EFF2FE10000004001C08FE21CFF2FE135
:1002000001491820ABDFFEE7260002001EFF2FE1A8
:100210002002000000000040E8040000440000004C
:0400000500000000F7
:00000001FF
